:020000040800F2
:1000000008080020B501000877360008B934000858
:1000100075360008B51500085D3F000800000000B7
:10002000000000000000000000000000693B000824
:10003000F118000800000000E9360008973B0008AE
:10004000CF010008CF010008CF010008CF01000850
:10005000CF010008CF010008CF010008CF01000840
:10006000CF010008CF010008CF010008CF01000830
:10007000CF010008CF010008CF010008CF01000820
:10008000CF010008CF010008CF010008CF01000810
:10009000CF010008CF010008CF010008CF01000800
:1000A000CF010008CF010008CF010008CF010008F0
:1000B000CF010008CF010008CF010008CF010008E0
:1000C000CF010008CF010008CF010008CF010008D0
:1000D000CF010008453F0008513F0008CF0100084C
:1000E000CF010008CF010008CF01000800F002F89E
:1000F00000F050F80AA090E8000C82448344AAF172
:100100000107DA4501D100F045F8AFF2090EBAE86F
:100110000F0013F0010F18BFFB1A43F0010318473B
:10012000F04C0000104D0000103A24BF78C878C190
:10013000FAD8520724BF30C830C144BF04680C60ED
:10014000704700000023002400250026103A28BF35
:1001500078C1FBD8520728BF30C148BF0B60704739
:10016000662904F0CE85642900F08080752900F0AE
:100170007D80782900F0B680002070471FB500F020
:1001800071FC04000020002104F0F0FAE0601FBDC3
:1001900010B510BD00F066FD1146FFF7EFFF03F04C
:1001A0003FFF00F084FD03B4FFF7F2FF03BC00F053
:1001B000C7FD00000948804709480047FEE7FEE701
:1001C000FEE7FEE7FEE7FEE7FEE7FEE7FEE7FEE707
:1001D00004480549054A064B70470000133C0008D7
:1001E000ED00000808020020080800200804002094
:1001F000080400200FB41CB5074B06AA7B446946CF
:100200000090059800F015FC0020694600F024FCE1
:100210001CBC5DF814FB00005908000070B50446D2
:1002200085690068C10601D5302600E02026C00798
:1002300007D070BDD4E9012130469047206A401CA8
:1002400020626D1EF6D570BD70B5044685690078D4
:10025000C00707D170BDD4E9012120209047206A52
:10026000401C20626D1EF6D570BD00002DE9F041E6
:100270000646002410687529314616A510D0AFF344
:100280000080002802DA404213A507E031688A079F
:1002900001D512A502E0490704D511A5012401E00A
:1002A000AFF3008000210A2206F1240709E0B0FB29
:1002B000F2FCB0FBF2F302FB1C003030785418461D
:1002C000491C0028F3D123462A463046BDE8F041B8
:1002D00000F041B9000000002D0000002B000000DC
:1002E0002000000070B504460D4621461068AFF3AB
:1002F00000802188090502D50F4A7A4402E00E4A9F
:100300007A440E32002104F1240305E000F00F06C8
:100310000009965D5E54491C0028F7D1207800231F
:10032000000704D5702D02D009B1022311322046F6
:10033000BDE8704000F00FB9444A00002DE9F05FBD
:10034000894604464FF0000ADFF874B1FB44C0F858
:1003500020A02046E1688847002874D0252806D0D0
:10036000D4E901219047206A401C2062F1E7002671
:100370005F462046E16888472028054607DB312D87
:1003800005D2781910F8200C08B10643F1E7B00740
:1003900001D526F00406C4F81CA00027C4F818A054
:1003A0002A2D09D0284603F0FEFD38B304EB870858
:1003B000303DC8F8185019E059F8041B204604EBEA
:1003C00087029161E1688847012F054618D1E069ED
:1003D000002820DA26F020061DE0D8F8180000EBEF
:1003E000800005EB40003038C8F818002046E1686E
:1003F0008847054603F0D7FD0028EED1012F0AD02B
:100400002E2D08D12046E16888477F1C0546022F23
:1004100046F02006C4DBA069002803DA404246F01B
:100420000106A061F00701D026F010066C2D0BD05C
:10043000682D09D04C2D39D06A2D35D0742D35D08A
:100440007A2D33D016E038E0E1682F462046884701
:10045000B842054609D16C2F26D04FF48060E16880
:10046000064320468847054604E06C2F1AD04FF417
:10047000807006430DB3A5F14100192802D820353C
:1004800046F400664A462946204626604E46FFF757
:1004900067FE80B101280BD0F61D26F0070000F1A1
:1004A000080956E74020E4E78020D8E70020D6E797
:1004B00006F104094DE7284652E7206ABDE8F09F9F
:1004C0001A4A000010B5431C02E010F8011B71B17C
:1004D0008107FAD14FF0013202C88C1A8C4314EA1A
:1004E000C211F9D0C01A0A0603D0C01E10BDC01A2E
:1004F00010BD0A0401D0801E10BD0902FCD0401EB0
:1005000010BD4FF0000200B51346944696462039C0
:1005100022BFA0E80C50A0E80C50B1F12001BFF4BC
:10052000F7AF090728BFA0E80C5048BF0CC05DF822
:1005300004EB890028BF40F8042B08BF704748BF70
:1005400020F8022B11F0804F18BF00F8012B7047E4
:100550007047704770472DE9F0470D46994692461F
:10056000044600F124080168880604D5E06921F0FA
:100570001001216000E00120A84201DD471B00E0DE
:100580000027A1697A1902EB0900081AA0612078F6
:10059000C00602D42046FFF741FE002608E0D4E959
:1005A00001211AF806009047206A401C761C206240
:1005B0004E45F4DB2078C0060AD52046FFF72EFE14
:1005C00006E0D4E9012130209047206A401C2062D7
:1005D000381EA7F10107F4DC07E0D4E9012118F87F
:1005E00005009047206A401C2062281EA5F10105E5
:1005F000F3DC2046FFF728FE2078000602D5022013
:10060000BDE8F0870120FBE770472DE9FF4F0C465E
:100610001E464FF0FF378BB0D2E90001DDF8608055
:100620000A908A46C1F30A5505B93D46002108469D
:100630004FF00000BAF1000F00F4400005DA00EBC3
:1006400080004FF4400101EA50004FEA9059B9F19F
:10065000010F00DDB9460A9850EA4A000ED044F670
:100660001050A5F2FF3545432F14B8F1000F1ED0EE
:100670007542291E1EDDC9F100021CE0B8F1010F10
:100680004FF0000001D0302103E0F24305E0215497
:10069000401CB042FBDB30460022002121540B9964
:1006A000C1F80880C1E900200FB0BDE8F08FBD1B84
:1006B0006D1CDEE74A4600DA694206A800F05CFAE3
:1006C00006AB93E8070003AB83E8070050460A999E
:1006D00000F03DFB8DE80700A0F500501F380090AA
:1006E0000398002D0ADD42F21F014A460844002308
:1006F00003A90390684600F0A6FD09E0A0F50050AC
:100700004A461F38002303A90390684600F0B0FD55
:100710008DE807000004000C03D04FF0FF304108C3
:1007200000E01046B8F1000F03D0002200921546F9
:100730001EE0751E05D400F099F9303262556D1E29
:10074000F9D5B3460122084302D000227F1C04E001
:100750002078302801D100227F1E002A099784D0FA
:100760001DE0112D07DA00F081F9303262556D1C61
:1007700050EA0102F5D1084302D00098C8B10EE05A
:100780000021681E05E0235C625C63542254401E15
:10079000491C8142F7DBAB46A81B401E0990002094
:1007A00004F80B000B98099AC0F80880C0E9002BE8
:1007B0007AE711264FF0000857E72DE9F04F8846F9
:1007C0000446D21D22F0070191B0D1E90001CDE924
:1007D0000A0103F0C4FB02460B98C00F01D02D2084
:1007E00007E02068810701D52B2002E0202101EAE3
:1007F000C000032A099001D0072A05DB03464146C1
:10080000204600F079F90BE12078800601D5E069F7
:1008100000E00620B8F1650F814606D0B8F1660FFA
:1008200018D0B8F1670F70D131E00020B9F1110F85
:10083000009001DB112301E009F101030AAA01A9DB
:100840000CA8FFF7E2FEDDE90C70002609F10105B6
:10085000834647E001204B4600904FF000470AAA2C
:1008600001A90CA8FFF7D1FEDDE90DB00C995D469A
:10087000002610B909F101000D18B9EB050003D4E9
:10088000C0F1FF3609F10105A5EB09002BE0B9F134
:10089000010F01DA4FF001090020B9F1110F0090AA
:1008A000484601DD112300E003460AAA01A90CA86D
:1008B000FFF7ABFEDDE90C704D460026834620783D
:1008C00000070AD4AB4500DA5D4601A8012D04DD1E
:1008D000411911F8011C302907D04F4502DA17F1F0
:1008E000040F04DA012082460FE06D1EEEE7002FB0
:1008F00002DCED1B3E4403E0781CA84200DD7D1CB9
:10090000B81B00F1010A4FF000472078000703D41C
:10091000AA4501DB4FF0FF3A0021B7F1004F0DF17E
:1009200043088DF8431024D002202B23002F01DA36
:100930007F422D230A21021EA0F1010000DC5FB1DD
:1009400097FBF1FC97FBF1F201FB1C7C17460CF1C5
:10095000300C08F801CDEEE7A8F101000370218802
:10096000090501D5452100E06521A0F1010800F845
:10097000011C09980FA9A1EB0807FF1D00B1012078
:10098000411901EBEA70A1693844081A401EA061C0
:100990002078C00602D42046FFF740FC099828B111
:1009A000D4E901219047206A401C20622078C006CB
:1009B00022D52046FFF732FC1EE0002E04DBB345B3
:1009C00002DD01A8805D00E03020D4E901219047DC
:1009D000206A401C2062761CAAF101005FEA000A2E
:1009E0000AD100F03FF8C0680168405CD4E90121F9
:1009F0009047206A401C2062281EA5F10105DCDC1E
:100A000007E0D4E9012118F8010B9047206A401C47
:100A10002062381EA7F10107F3DC2046FFF714FC23
:100A2000032011B041E6000001694A1C0261087808
:100A3000704700B58FB0CDE901310021059105491E
:100A40007944CDE9031011466846FFF777FC0FB0F3
:100A500000BD0000E5FFFFFF0A6802F8010B0A6015
:100A60007047000000487047C801002030B5B0F161
:100A70000A024FEA900E71F100034EEA817EB0EB5C
:100A80000E0061EB91014FEA101E4EEA017E10EB61
:100A90000E0041EB11114FEA102E4EEA016E10EBE1
:100AA0000E0041EB11214FEA104E4EEA014E10EBC1
:100AB0000E0041EB1141401841F100014FEAD00016
:100AC00040EA41704FEAD10110EB80054FEA810402
:100AD00044EA907444EB01046D1944EB0404521B86
:100AE000A3414FF0000348BF0A3200D530BD401C7F
:100AF00041F1000130BD00002DE9F0411F460446E0
:100B000003260168072A01F4006004DB08B116A57A
:100B100005E016A503E008B115A500E015A521F034
:100B200010002060A069C01EA0610FB1401EA0612E
:100B30002046FFF773FB4FB1D4E9012138469047B7
:100B4000206A401C2062C01C206206E0206AFAE78E
:100B5000D4E9012115F8010B9047761EF8D2204602
:100B6000FFF772FBBDE8F0814E414E006E616E00F2
:100B7000494E4600696E66002DE9F04781461646EB
:100B80008AB0354878440DC88DE80D003248784465
:100B9000801C03AC0DC884E80D0041F69B3008446E
:100BA000372190FBF1F290FBF1F5A5F1800501FBF7
:100BB00012041B3C02D56442012000E00020DFF853
:100BC00098A080460027FA44AAF1BE0A0EE0E0078A
:100BD0000AD03246684607EB470101230AEB810140
:100BE00000F046FB8DE8070064107F1C002CEED15E
:100BF000194F7F44AE3F19E0E80715D007EB04100A
:100C00000DF1180A90E80E008AE80E00C068F04264
:100C100001D1981908903246012306A903A800F0D3
:100C200027FB03AB83E807006D10641C002DE3D1A4
:100C30004FF0010332466946B8F1000F03A802D015
:100C400000F001FB01E000F013FBC9E90001C9F865
:100C500008200AB0BDE8F0877042000000487047E5
:100C6000A80100207546FFF7F9FFAE46050069466A
:100C7000534620F00700854618B020B5FFF7A8FAC4
:100C8000BDE820404FF000064FF000074FF000088D
:100C90004FF0000B21F00701AC46ACE8C009ACE80E
:100CA000C009ACE8C009ACE8C0098D46704710B572
:100CB0000446AFF300802046BDE81040FFF773BA4A
:100CC0004FF0013C50F8042B51F8043B9A4221D1DB
:100CD000A2EB0C03934313EACC1317D150F8042B67
:100CE00051F8043B9A4215D1A2EB0C03934313EA4B
:100CF000CC130BD150F8042B51F8043B9A4209D184
:100D0000A2EB0C03934313EACC13DBD04FF00000AB
:100D1000704700BFD01A01BAB1FA81F101F0180191
:100D200022FA01F0CB40C1F12001DBB2C0B2C01AFF
:100D30002CFA01F3D11A914311EAC311E6D170479D
:100D400001491820ABBEFEE72600020070475FEAAB
:100D5000400C08BF91F0000F4FEA8C234FEAC122EC
:100D600043EA51514FEA1C5018BF00F5F0404FEADA
:100D7000300018BF41F000415FEA6C5C00F0298050
:100D8000BCF1FF3F08BF40F080407047130C06BF26
:100D900012044FF0100C4FF0000C130E04BF12029F
:100DA0000CF1080C130F04BF12010CF1040C930F8B
:100DB00004BF92000CF1020CD30F04BF52000CF1DF
:100DC000010C11464FF00002A0F11F00A0EB0C0037
:100DD000704711F0004F08BF704731F000413FF4F9
:100DE000D5AF0B0C06BF09044FF0100C4FF0000CF0
:100DF0000B0E04BF09020CF1080C0B0F04BF090114
:100E00000CF1040C8B0F04BF89000CF1020CCB0F0A
:100E100004BF49000CF1010CCCF12003A0EB0C0045
:100E200022FA03F302FA0CF241EA030100F1010095
:100E3000704720F07F4C80EA030023F07F47ACEB43
:100E4000070303F57C5300F0004003F1FF032DE995
:100E500080494FEA154B09B44FEA144325EA0B4E7B
:100E600024EA03480FF2042606EB132749083E78CC
:100E70005FEA320203FB0667C7F5000707FB06F6C9
:100E80004FEA54374FEAD64606F1020607FB066CD6
:100E9000CCF1005C4FEA1C472CEA074C07FB06F438
:100EA0000CFB06F504EB15464FEA961634BF0020FE
:100EB0004FF000404FEAD13706FB07FC4FEA1C4CCD
:100EC0000CFB0BF7D21B03FB0CF761EB07010CFBD0
:100ED0000EF7B0EB074072EB17420CFB08F734BF7C
:100EE000A2EB0742B2EB074261EB17414FEA0C4419
:100EF0004FEA910706FB07FC4FEA1C4C0CFB0BF773
:100F0000B0EBC74072EB573203FB0CF734BFA2EBD8
:100F1000C742B2EBC74261EB57310CFB0EF7B0EBA7
:100F2000C70072EB57720CFB08F734BFA2EBC70285
:100F3000B2EBC70261EB5771039F4FEA816141EA4F
:100F4000921104EBCC044FEAD1374FEA826206FBE0
:100F500007FC42EA90124FEA80604FEA1C4C0CFBFF
:100F60000BF7D21B03FB0CF761EB07010CFB0EF731
:100F7000B0EB074072EB17420CFB08F734BFA2EB53
:100F80000742B2EB074261EB17414FEA8C554FEA3B
:100F9000910704EB9C2406FB07FC4FEA1C4C0CFB5E
:100FA0000BF7B0EBC74072EB573203FB0CF734BFC3
:100FB000A2EBC742B2EBC74261EB57310CFB0EF715
:100FC000B0EBC70072EB57720CFB08F734BFA2EB13
:100FD000C702B2EBC70261EB577115EB4C254FEA24
:100FE000816141EA92114FEA82624FEAD13742EAC7
:100FF000901206FB07FC44F100044FEA80604FEAC0
:101000001C4C0CFB0BF7D21B03FB0CF761EB07012D
:101010000CFB0EF7B0EB074072EB17420CFB08F726
:1010200034BFA2EB0742B2EB074261EB174115EB6D
:101030001C154FEA813141EA92414FEA823242EA7D
:1010400090424FEA80304FEA0C7644F1000448EABF
:1010500003434EEA0B484FF0000EB2EB080C71EB65
:10106000030724BF624639464EEB0E0E4FF0000BCD
:101070000018524149414BEB0B0BB2EB080C71EBE2
:1010800003077BF1000B24BF624639464EEB0E0E80
:101090004FF0000B0018524149414BEB0B0BB2EBE8
:1010A000080C71EB03077BF1000B24BF6246394645
:1010B0004EEB0E0E51EA020718BF46F0010616EB82
:1010C0000E7655F1000254F1000103D5BDE8890107
:1010D000BDE80088BDE88901BDE80048B619524165
:1010E00041EB0101A3F10103704780807F7E7D7C8D
:1010F0007B7A7978777676757473727171706F6EAA
:101100006E6D6C6C6B6A6A69686867666665646454
:10111000636362616160605F5F5E5E5D5D5C5C5BDE
:101120005B5A5A595958585757565655555554544D
:10113000535352525251515050504F4F4F4E4E4DAB
:101140004D4D4C4C4C4B4B4B4A4A4A4949494848F7
:101150004847474747464646454545444444444337
:1011600043434342424242414141002B9C4630D4DA
:1011700077002BD01CB54FEA370703B44FF01000AF
:101180004FF01001BAF1000F06D0BCF1000FDCBF28
:1011900040F0080040F008014FF000000FBCBDE82F
:1011A00010400BF1010BBBF1010F08BF5FEA1707FD
:1011B00022BF12F1010211F101014FF0004143F190
:1011C000000300F0004043EA00007047F9D35708DD
:1011D000D0E746EA064613F1400F4FEA16461FDDF8
:1011E00013F1200FDFBF16430A46002120335B4274
:1011F000BED0C3F1200746EA064602FA07F74FEAD7
:10120000164646EA0706C3F1200722FA03F201FA5E
:1012100007F721FA03F14FF0000342EA0702A7E7BC
:1012200046EA020646EA06464FEA164646EA01063E
:10123000BCBF46EA0646360C4FF000034FF00002F2
:101240004FF0000194E72DE9804C9A46934670B424
:1012500091E8380007C831EA400C48BF34EA430C33
:1012600003D5FFF7E6FDFFF780FFF0BCBDE8008C7B
:101270002DE9804C9A46934670B491E8380007C82F
:1012800010F0804F08BF13F0804F03D100F005F835
:10129000FFF76BFFF0BCBDE8008C20F07F4780EAD1
:1012A000030023F07F4C07EB0C03A3F57C5300F005
:1012B0000040A3F1FE0392F0000F00F0B38095F020
:1012C000000F00F077802DE901494FEA11404FEA05
:1012D000144621EA004800FB06FC24EA064708FB06
:1012E00006F607FB08F800FB07F718EB06484CEB7F
:1012F000164C4FEA124B18EB07484FEA15464CEBD9
:10130000174022EA0B4E0BFB06FC25EA06470EFBB4
:1013100006F607FB0EFE0BFB07F71EEB064E4CEB2B
:10132000164C4FF000061EEB074E4CEB174B18EB1C
:101330000B0840F1000018EB0E0B58EB000840F1D1
:1013400000008F1A4FF000013CBFC943661B14BF59
:10135000B5EB040C00213CBFC943F61B4FEA174410
:101360004EEA8E0E27EA04454FEA1C4704FB07624B
:101370002CEA074C05FB07F70CFB05F604FB0CFCFD
:1013800016EB074642EB174216EB0C4642EB1C42AB
:101390001BEB060658EB0202414146EA9E0601D5C8
:1013A000BDE80189B619524141EB0101A3F10103E6
:1013B000BDE801894FEA14454FEA114724EA054682
:1013C00021EA074C05FB07F406FB07F70CFB06F1C7
:1013D00005FB0CFC11EB074144EB17444FEA1247A5
:1013E00011EB0C4144EB1C4422EA074C05FB07F2CD
:1013F00006FB07F70CFB06F605FB0CFC16EB074695
:1014000042EB174216EB0C4642EB1C456A1854F1AE
:10141000000148BF7047B619524141EB0101A3F1E9
:101420000103704795F0000F37D04FEA11424FEAA1
:10143000144721EA024624EA074C02FB07F106FBA7
:1014400007F70CFB06F402FB0CFC14EB074441EB22
:1014500017414FEA154714EB0C4441EB1C4125EAB8
:10146000074C02FB07F506FB07F70CFB06F602FB31
:101470000CFC16EB074645EB174516EB0C4645EB07
:101480001C42121951F1000148BF7047B619524170
:1014900041EB0101A3F1010370474FEA14454FEA04
:1014A000114724EA054621EA074C05FB07F106FB34
:1014B00007F70CFB06F24FF0000605FB0CFC12EBE5
:1014C000074241EB174112EB0C4251EB1C4148BF64
:1014D0007047921841EB0101A3F10103704700002E
:1014E00070B5044600688168C943C90717D181688F
:1014F00021F00101816000F0D7FD05460AE000BF40
:1015000000F0D2FD401B022804D920688068C04347
:10151000C00706D020688068C043C007F0D0002014
:1015200070BDA06A40F01000A062E06A40F00100C7
:10153000E062012070BD0000F8B500260446009668
:1015400000688168C943C9072DD0816841F0010155
:101550008160164816490068B0FBF1F000E0401EBB
:1015600000900028FBD100F09FFD054616E000BF6B
:1015700000F09AFD401B022810D920688068C04303
:10158000C0070BD0A06A40F01000A062E06A40F0F3
:101590000100E06284F824600120F8BD20688068C2
:1015A000C043C007E4D10020F8BD00003400002093
:1015B00040420F00FEE7000010B50C4CB0F5966FEE
:1015C00001D8204610BD40F6D861884201D30020E2
:1015D00010BD03F037FA064903F014FB214603F06F
:1015E00045FABDE81040034903F06AB90000C8425B
:1015F00000806D45008022452DE9F047044600F04B
:101600007AF98046204600F074F9012700251F4E24
:1016100081464FF480514FF4005AB8F1844F0ADCF0
:101620000122304600F03BFD00225146304600F0DA
:1016300036FDA77317E0164A304690454FF000027A
:1016400009DD00F02CFD01225146304600F027FD57
:10165000A573677308E000F022FD00225146304672
:1016600000F01DFDA57365730A4A4FF48041914552
:1016700006DA0122304600F012FD2773BDE8F0873C
:101680000022304600F00BFD2573F7E7000C014007
:1016900000001042000048422DE9F041877B467B64
:1016A000057B04460FB1012200E00022DFF83880FC
:1016B0004FF48051404600F0F2FC0EB1012200E0F0
:1016C00000224FF40051404600F0E9FC0DB1012228
:1016D00000E000224FF48041404600F0E0FCA77398
:1016E00066732573BDE8F081000C01402DE9F041DF
:1016F00090B00025322002F07DFC1F4E01213046C3
:1017000000F0C8FC50B9642002F074FC012130469E
:1017100000F0C0FC08B1012500E0FF2500244FF4D3
:101720007A774CF250381FE0641CB4FBF7F007FBEB
:10173000104068B9224611A16846FEF75BFD684675
:10174000FEF7C0FE82B264236946134801F063FECF
:10175000444509D96423172210A10F4801F05BFE0C
:10176000002010B0BDE8F0810121304600F092FC6D
:101770000028D9D12846F4E7000C01405041302020
:1017800076616E20484947482C2064656D203D20D5
:10179000256C750D0A0000000801002054696D6574
:1017A0006F75742044485420726573706F6E736552
:1017B0000D0A000070B5054600F056F8FFF796FFD9
:1017C000114C207000F022F8607000F01FF8A0703B
:1017D00000F01CF8E07000F019F8207100F016F825
:1017E000E0806678A17823797218E1780A441A4477
:1017F000824207D1084603F025F92860304603F0FD
:1018000021F9686070BD0000000000202DE9F04162
:101810000024144F01260121384600F03BFC00282B
:10182000F9D0322002F0E6FB0121384600F032FC0C
:1018300090B1C4F1070106FA01F02843C5B20121B5
:10184000384600F027FC0028F9D1641CE4B2082CCB
:10185000E1D32846BDE8F081C4F1070006FA00F0A4
:101860008543ECE7000C014010B500F01FF80E4C6A
:101870000121204602F083F900220121204600F0D8
:101880000EFC44F2506002F0B5FB012211462046E6
:1018900000F005FC1E2002F0ADFB2046BDE8104024
:1018A000012102F062B90000000C01400E480168FD
:1018B00021F080710160016841F0807101600B4886
:1018C000016821F001010160016841F0010101603E
:1018D0000021416000BF00BF00BF406808B1002088
:1018E0007047012070470000FCED00E0001000E0B0
:1018F000704780687047006870474160704781603A
:101900007047016070470000F8B50024009490F81B
:1019100024202546012A12D0012280F824204A687A
:101920001F23072A0DD20668776B521E02EB820234
:1019300093409F430B6893401F43776319E0022055
:10194000F8BD06680D2A0AD2376BD21F02EB82025D
:1019500093409F430B6893401F43376309E0F76A46
:101960000D3A02EB820293409F430B6893401F4362
:10197000F7620A68072306680A2A0AD3F7680A3A50
:1019800002EB420293409F438B6893401F43F760F2
:1019900008E0376902EB420293409F438B68934013
:1019A0001F4337610A68102A01D0112A20D1124B37
:1019B00002689A4217D193681B0219D4936843F4C2
:1019C000000393600968102912D10C490C4A096878
:1019D000B1FBF2F101EB8101490000E0491E0091E9
:1019E0000029FBD104E0816A41F0200181620124D9
:1019F00080F824502046F8BD002401403400002027
:101A000040420F000068C06C704700002DE9F041B3
:101A10004FF0000704003D467ED0A06A002628B99A
:101A2000E66284F82460204600F07EF82046FFF746
:101A300057FDA16AC90600D420B1A06A40F0100089
:101A4000A06269E0A16A21F4885141F00201A1621B
:101A50006268E169237B0A4347EA43010A43A168BC
:101A60004FF48077B94209D0012907D05FF0000117
:101A700094F814C0BCF1010F02D00AE03946F7E730
:101A8000F3B1A36A43F02003A362E36A43F00103C6
:101A9000E3622368D3F804C02CF4694C4CEA010CCF
:101AA000C3F804C021688B68DFF870C003EA0C0338
:101AB00013438B60A168B9420BD0012909D00CE017
:101AC000DFF85CC0A3690CEB43330B4343F40061C4
:101AD000DFE7218A0D05A5F580152168CB6A23F47F
:101AE00070032B43CB62216889680E4B19409142E9
:101AF00008D1E662A16A21F0020141F00101A16270
:101B0000BDE8F081A06A20F0020040F01000A06261
:101B1000E06A40F00100E0620120F1E7FDF7E1FF3B
:101B200000E0FFFFFE0E1FFF00B585B00021009111
:101B300001910291039100680E49884218D10E4824
:101B4000816941F400718161816901F4007104913E
:101B5000816941F0040181618069694600F00400F7
:101B600004900220009003200190044800F0A2F9A4
:101B700005B000BD002401400010024000080140F3
:101B80002DE9F84300270D460446009700F08CFA33
:101B9000804620688168C90508D5A06A40F0200009
:101BA000A06284F824700120BDE8F8834168C9056B
:101BB00003D4C06A10F4700F2AD0022000F012FB88
:101BC0003B490968B1FBF0F62068036939490B42CB
:101BD0004FEA61014FEAA1121FD1C3684FEA611CAD
:101BE00013EA0C0F19D103690B4225D1C0681042CA
:101BF00022D1142023E0681C0AD02DB100F054FA41
:101C0000A0EB0800A84203D920680068800725D50A
:101C1000206800688007EED52DE003690B4202D1F1
:101C2000C168114206D0026923490A4206D1C06840
:101C3000084203D1542002E0292000E0FC20464362
:101C4000009816E0681C11D02DB100F02DFAA0EB21
:101C50000800A8420AD90098B04207D2A06A40F012
:101C60000400A06284F8247003209DE70098401CC3
:101C70000090B042E6D321686FF012000860A06ABD
:101C800040F40070A06220688068C0F342400728DA
:101C90000CD1207B50B9A06A20F48070A062A06AA9
:101CA000C00403D4A06A40F00100A06200207BE7DA
:101CB00034000020244992244992240070B504463F
:101CC00090F8240001280DD0012084F8240020463B
:101CD000FFF732FC02004FF0000005D084F824002A
:101CE000104670BD022070BDA16A40F201239943E5
:101CF00041F48071A1621F4D23681F49AB4218D186
:101D00000E6816F4702F14D0A66A46F48016A662E8
:101D10000E68760505D5A66A26F4005646F4805668
:101D2000A662A66AF6040AD5E66A26F00606E66208
:101D300006E0A66A26F48016A6625E68E9E7E0621D
:101D400084F824006FF00200186020688368C3F3F1
:101D50004243072B05D1A84208D1096811F4702F1E
:101D600004D0816841F480118160B9E7816841F451
:101D7000A001F9E7002801400424014010B5044601
:101D800090F82400012807D0012084F82400204680
:101D9000FFF7A6FB10B107E0022010BDA16A21F4F5
:101DA000885141F00101A162002184F8241010BD86
:101DB00010B590F821100022022905D0042181637A
:101DC00080F82020012010BD01680B6823F00E036D
:101DD0000B6001680B6823F001030B6090F8403042
:101DE000C46B012101FA03F3636080F8211080F8CD
:101DF0002020104610BD000010B590F821100024DE
:101E0000022903D00421816301243DE001680A68AE
:101E100022F00E020A6001680A6822F001020A60DC
:101E20001A4A0168914201D1012121E0174A143276
:101E3000914201D110211BE0144A2832914201D174
:101E4000891515E0114A3C32914201D189140FE005
:101E50000E4A5032914202D14FF4803108E00B4AD1
:101E60006432914202D14FF4801101E04FF0807151
:101E7000064A083A5160012180F82110002180F8BB
:101E80002010416B01B18847204610BD0800024078
:101E900070B5044600F008F90546601C02D00448FD
:101EA0000078044400F000F9401BA042FAD370BD52
:101EB000280000202DE9F84FDFF8B8910024A9F19F
:101EC000040B23460F2709F1040AABF1040EC9E005
:101ED0000125A5402A40AA427DD1674ED1F804C011
:101EE000ACEB0608B44532D014DCBCF1030F3AD099
:101EF00009DCBCF1000F2AD0BCF1010F1CD0BCF1F1
:101F0000020F31D11DE0BCF1110F17D0BCF1120F3F
:101F10002AD119E0B8F5881F19D006DCB8F5803F42
:101F200015D0B8F5801F1FD111E0B8F5001F0ED0F5
:101F3000B8F5041F18D10AE0CB6815E0CB681B1D6B
:101F400012E0CB6808330FE0CB680C330CE08B68F1
:101F50002BB1012B4FF0080303D0456104E00423AB
:101F600002E0056100E00023FF2A01D8064601E0F7
:101F700000F104064FEA840501D9A5F12005D6F841
:101F8000008007FA05FC28EA0C0803FA05F548EA80
:101F90000508C6F800804D68ED0062D5374DAE6982
:101FA00046F00106AE61AD6924F0030605F00105B7
:101FB0000095334D06EB050CDCF80850A607360FEC
:101FC00007FA06F825EA0805DFF8B880404503D18E
:101FD0004FF0000817E044E0DFF8AC80404502D144
:101FE0004FF001080FE0DFF8A480404502D14FF028
:101FF000020808E0DFF89880404502D14FF003085E
:1020000001E04FF0040808FA06F848EA0508CCF8A1
:1020100008804D68D9F80060ED024D4601D51643A1
:1020200000E096432E604D68DAF80060AD02554638
:1020300001D5164300E096432E604D68DBF8006042
:10204000AD035D4601D5164300E096432E604D6812
:10205000DEF80060ED03754601D5164300E09643B7
:102060002E60641C0D682A46E5407FF431AFBDE860
:10207000F88F000008040140000011100010024019
:102080000000014000080140000C01400010014028
:10209000001401408068084000D0012070470AB158
:1020A000016170470904FBE7014880687047000040
:1020B000280000200248816802781144816070473E
:1020C00028000020074810B5016841F010010160A8
:1020D000032000F075F80F2000F006F800F024F857
:1020E000002010BD0020024070B50D4D04464FF495
:1020F0007A712878B1FBF0F00A490968B1FBF0F079
:1021000000F091FE48B9102C07D200222146501E43
:1021100000F036F800206C6070BD012070BD00003A
:1021200028000020340000200C4808B5816941F0E7
:1021300001018161816901F001010091C16941F0F2
:102140008051C161C06900F080500090044841682E
:1021500021F0E06141F00071416008BD00100240D3
:1021600000000140002809DB00F01F02012191401E
:102170004009800000F1E020C0F800117047000025
:10218000F0B40E4B1B680C46C3F30223C3F10705E2
:10219000042D00D90425191D072901D2002300E0D0
:1021A000DB1E012606FA05F1491E214099409E409A
:1021B000761E16403143F0BC01F0E5BE0CED00E0A8
:1021C000064900F0070208684FF6FF03184040EA8E
:1021D0000220034A10430860704700000CED00E045
:1021E0000000FA0510B501460020234C012922D039
:1021F000022939D010291DD161682268D20119D570
:102200001E48C1F38342C903805C0AD561681B4A3A
:10221000C1F34041921E515C194AB2FBF1F14843AF
:1022200001E0184948436168490203D44000032192
:10223000B0FBF1F010BD226AC2F30121012903D1E4
:10224000920701D5C80310BD022905D1626A920721
:1022500002D549F6404010BD0329FCD1216889030D
:10226000F9D54FF2244010BD00F030F96168C1F398
:102270008131491C4900DBE7001002401A4D00087B
:1022800000127A0000093D002DE9F8430546007868
:10229000354CC00754D0E0690026C00008D4E0697E
:1022A00040F08050E061E069012600F0805000902D
:1022B0002E480168C90512D40168804641F4807136
:1022C0000160FFF7F1FE074605E000BFFFF7ECFEF7
:1022D000C01B642823D8D8F80000C005F6D5206AB2
:1022E00010F4407021D0A98801F4407181421CD0C3
:1022F000206A1F49012220F440700A6000220A600F
:102300002062C00711D0FFF7CFFE074641F28838A0
:1023100008E000BFFFF7C8FEC11B414502D90320FA
:10232000BDE8F883206A8007F4D5206A696820F444
:102330004070084320621EB1E06920F08050E061E7
:102340002878800705D56068A96820F440400843D4
:1023500060602878C00605D56068E96820F48000D0
:10236000084360600020DBE700100240007000407E
:10237000400442422DE9F0470F46050061D0434E2C
:10238000306800F00700B84209D2306820F007003A
:1023900038433060306800F00700B84251D12868F7
:1023A0003B4C810712D5400703D5606840F4E060DC
:1023B00060602878000703D5606840F46050606072
:1023C0006068A96820F0F000084360602878C007C2
:1023D00028D06868012810D02168022810D0890709
:1023E00000292EDA616821F0030101436160FFF7E3
:1023F0005BFE804641F288390DE021688903EFE7F2
:102400008901EDE7FFF750FEA0EB0801494502D92D
:102410000320BDE8F0876068696800F00C00B0EB4D
:10242000810FEFD1306800F00700B8420BD9306857
:1024300020F0070038433060306800F00700B842F1
:1024400001D00120E5E72878400705D56068E968F4
:1024500020F4E060084360602878000706D56068D3
:10246000296920F4605040EAC100606000F03EF845
:102470006168084AC1F30311515CC840064908600D
:1024800006480068FFF730FE0020C2E70020024047
:10249000001002402A4D0008340000202C000020CB
:1024A00001480068704700003400002004480549D6
:1024B00000684968044AC1F30221515CC840704772
:1024C00034000020001002403A4D0008044805493D
:1024D00000684968044AC1F3C221515CC840704792
:1024E00034000020001002403A4D00080E4A5168A6
:1024F0000E4801F00C03042B11D0082B0FD10C480F
:10250000C1F38343C903C05C0AD55168084AC1F3CB
:102510004041921E515C054A5043B0FBF1F07047B8
:1025200004494843704700000010024000127A003E
:10253000084D000800093D002DE9F84F040070D057
:102540002078C04DC00749D06868C0F381000128D9
:1025500007D06868C0F38100022809D16868C00309
:1025600006D52868800339D560680028E7D035E0B3
:102570006068B0F5803F0BD010B1B0F5A02F11D03E
:10258000286820F480302860286820F4802002E049
:10259000286840F480302860606890B1FFF784FDBF
:1025A00006460AE0286840F480202860F0E700BF73
:1025B000FFF77AFD801B642873D828688003F7D55D
:1025C0000CE0FFF771FD064605E000BFFFF76CFD6C
:1025D000801B6428F0D828688003F7D420789A4EAE
:1025E00080074FF001094FF0000839D5686810F0F6
:1025F0000C0F07D06868C0F38100022809D1686811
:10260000C00306D42868800714D52069012808D1A2
:1026100010E02069B0B1C6F80090FFF745FD07460D
:1026200005E00AE1FFF740FDC01B0228C4D8286876
:102630008007F7D52868616920F0F80040EAC100FA
:1026400028600DE0C6F80080FFF72EFD074604E085
:10265000FFF72AFDC01B022823D828688007F7D47B
:10266000207800072CD57948A169D9B1C0F800902D
:10267000FFF71AFD074604E0FFF716FDC01B02280E
:102680000FD8686A8007F7D571484FF4FA5100688F
:10269000B0FBF1F0009000BF0098411E0091FAD20B
:1026A0000EE080E0C0F80080FFF7FEFC074604E083
:1026B000FFF7FAFCC01B022875D8686A8007F7D4B8
:1026C0002078400760D5E8690027C00008D4E86991
:1026D00040F08050E861E869012700F080500090E8
:1026E0005C480168C90513D40168834641F48071D0
:1026F0000160FFF7D9FC824606E000BFFFF7D4FC7B
:10270000A0EB0A0064284ED8DBF80000C005F5D520
:10271000E06801280AD008B1052813D0286A20F003
:1027200001002862286A20F0040002E0286A40F0D4
:1027300001002862E06841F2883B98B1FFF7B4FCE1
:1027400082460BE0286A40F004002862EEE700BFF2
:10275000FFF7AAFCA0EB0A0159455AD8286A80075E
:10276000F6D50CE0FFF7A0FC824605E0FFF79CFCE5
:10277000A0EB0A0159454CD8286A8007F6D41FB14E
:10278000E86920F08050E861E06988B36968C1F3C6
:102790008101022944D00228C6F8608004D0FFF7E6
:1027A00083FC044638E034E0FFF77EFC074604E093
:1027B000FFF77AFCC01B02282BD828688001F7D4C9
:1027C000206AB0F5803F05D16868A16820F4003028
:1027D00008436860D4E908010843696821F474116A
:1027E00008436860C6F86090FFF75EFC044606E0A8
:1027F00025E000BFFFF758FC001B022809D8286815
:102800008001F7D51BE000BFFFF74EFC001B02283C
:1028100002D90320BDE8F88F28688001F4D40EE0C7
:102820000128F7D06868226A00F48031914204D10F
:10283000616A00F47010884201D00120EAE70020AC
:10284000E8E70000001002400000424280044242DB
:10285000340000200070004070B5040009D0606AA8
:10286000002540B125616561A56294F8510040B131
:102870000CE0012070BD6068B0F5827FF4D0E561A6
:10288000F2E784F85050204600F040F8022084F827
:1028900051002068016821F040010160A088218971
:1028A00000F4827001F404410843A18901F400613D
:1028B0000843217C01F002010843217D01F0010160
:1028C0000843218B01F400710843217F01F0380196
:1028D000084394F8201001F080010843218D01F491
:1028E0000051084321680860A069042101EA1040F2
:1028F000216848602068C16921F40061C161656593
:10290000012084F85100002070BD000030B585B072
:1029100000240094019402940394006814498842AE
:1029200023D11448816941F480518161816901F4A6
:1029300080510491816941F00401816180690E4DEB
:1029400000F004000490A0200090022001900320D9
:10295000039069462846FFF7ADFA4020CDE9000410
:10296000694628460294FFF7A5FA05B030BD00007D
:102970000030014000100240000801402DE9F84FEE
:10298000044690F851001D4616460F46012838D1DE
:1029900060684FF00408B0F5827F01D1A06830B3C1
:1029A000FFF782FB8246002F75D0002E73D094F87B
:1029B0005000012825D04FF0010984F8509084F888
:1029C00051804FF00008C4F85480A763A687E687BB
:1029D000C4F83080A4F83480A4F83680C4F840806D
:1029E000C4F84480A068B0F5004F0CD015E084F81E
:1029F0005180009313460A46204600F01CF9BDE8BA
:102A0000F88F0220FBE72068016821F04001016097
:102A10002068016821F4804101602068016849064E
:102A200003D4016841F040010160E068C0B134E0C6
:102A300020688168C90709D0007BA16B0870A06B72
:102A4000401CA063E08F401EE08709E0FFF72CFBED
:102A5000A0EB0A00A84202D3681C01D032E085B383
:102A6000E08F0028E4D11BE020688168C90709D005
:102A7000C068A16B0880A06B801CA063E08F401E23
:102A8000E0870AE0FFF710FBA0EB0A00A84203D39F
:102A9000681C02D016E012E09DB1E08F0028E3D15F
:102AA00052462946204600F0BBFF08B12020606551
:102AB00084F8519084F85080606D00289FD00120E8
:102AC0009DE7FFE784F8519084F85080032096E753
:102AD0002DE9F84F984616468A460446FFF7E4FA71
:102AE000814694F8510001281ED1BAF1000F73D02D
:102AF000002E71D094F85000012815D0012784F8D9
:102B00005070032084F8510000256565C4F830A09A
:102B1000A686E686A563A587E58765642564A06823
:102B2000B0F5004F03D00CE00220BDE8F88F20681C
:102B3000016821F0400101602068016841F4804192
:102B4000016020680168490603D4016841F0400132
:102B50000160E068B0F5006F606803D048B3012EF3
:102B600027D047E008B1012E1FD1206B21680088D3
:102B7000C86006E020688168890709D5216B09884B
:102B8000C160206B801C2063E08E401EE0860CE05C
:102B9000FFF78AFAA0EB0901414503D3B8F1FF3FE3
:102BA00003D035E0B8F1000F32D0E08E0028E1D13B
:102BB00023E0206B21680078087306E020688168B4
:102BC00089070AD5216B09780173206B401C2063AB
:102BD000E08E401EE0860DE02BE0FFF765FAA0EBEB
:102BE0000901414503D3B8F1FF3F03D010E0B8F12C
:102BF000000F0DD0E08E0028E0D14A464146204625
:102C000000F03CFF08B120206065A06830B109E009
:102C100084F8517084F85050032086E72068C1681A
:102C20008068009084F8517004F8505F6068002854
:102C3000F3D0012079E72DE9FF4F81B01D4693467F
:102C400004464FF001090E9EFFF72EFA074694F84E
:102C500051006168012806D0B1F5827F3CD1A1689E
:102C6000C9BB042838D10298002871D0BBF1000FED
:102C7000FBD0002DF9D094F8500001282CD04FF053
:102C8000010A84F850A094F85100042802D00520CD
:102C900084F851004FF00008C4F85480C4F838B0EC
:102CA000E587A58702992163E586A586C4F840805B
:102CB000C4F8448020680168490603D4016841F0E3
:102CC00040010160E068B0F5006F606808D0F0B3C3
:102CD000012D49D081E0FFE7022005B0BDE8F08F6B
:102CE00008B1012D39D1206B21680088C860206BA4
:102CF000801C2063E08E401EE0862EE02068816804
:102D000089070FD5E18E69B1B9F1010F0AD1216BA5
:102D10000988C160206B801C2063E08E401EE08625
:102D20004FF0000920688168C9070CD0E18F51B1CC
:102D3000C068A16B0880A06B801CA063E08F401E60
:102D4000E0874FF00109FFF7AFF9C01B01E00BE08E
:102D500067E0B04201D3701C50D1E08E0028CDD185
:102D6000E08F0028CAD13EE0206B2168007808730C
:102D7000206B401C2063E08E401EE0862DE0206822
:102D8000816889070FD5E18E69B1B9F1010F0AD1C8
:102D9000216B09780173206B401C2063E08E401E7C
:102DA000E0864FF0000920688168C9070CD0E18FE8
:102DB00051B1C068A16B0870A06B401CA063E08F8C
:102DC000401EE0874FF00109FFF76EF9C01BB042CB
:102DD00002D3701C01D011E086B1E08E0028CED164
:102DE000E08F0028CBD13A463146204600F046FE1F
:102DF00050B12020606584F8508012E084F851A022
:102E000084F85080032068E7A06818B92068C1687A
:102E10008068009084F851A084F85080606D00288C
:102E2000F1D0012059E710B5401EB0F1807F01D3E9
:102E3000012010BD4FF0E02460610F21601701F008
:102E4000A2F80020A06107202061002010BD000032
:102E500070B590F83C20012A26D0012480F83C402F
:102E6000022280F83D2003685A689D6822F07006AF
:102E70000A6832435A600D4B02689A4208D0B2F198
:102E8000804F05D00A4B9A4202D00A4B9A4204D195
:102E9000496825F080031943916080F83D40002186
:102EA00080F83C10084670BD022070BD002C014027
:102EB000000400400008004010B5040003D094F85E
:102EC0003D0010B107E0012010BD002084F83C0057
:102ED000204600F01FF8022084F83D00211D2068E4
:102EE00000F098FE012084F8460084F83E0084F843
:102EF0003F0084F8400084F8410084F8420084F8E0
:102F0000430084F8440084F8450084F83D00002024
:102F100010BD000008B500680649884208D106487F
:102F2000816941F400618161806900F40060009072
:102F300008BD0000002C01400010024090F83D1038
:102F4000012901D001207047022180F83D1000685E
:102F50000B49884208D0B0F1804F05D0094988421A
:102F600002D00949884204D1816801F0070106298D
:102F700003D0016841F001010160002070470000AA
:102F8000002C0140000400400008004070B50446D9
:102F900090F83C000025012817D0012684F83C60F9
:102FA000022084F83D002068826822F0770222F433
:102FB0007F4282600868502838D00DDC20284FD02E
:102FC00005DC90B3102811D14AE0022070BD3028F2
:102FD00046D040280AD13BE060282FD070280DD081
:102FE000B0F5805F03D0B0F5005F12D0012584F802
:102FF0003D60002084F83C00284670BDCB68D1E9D4
:103000000121206800F042FE2068816841F07701CC
:1030100009E0CB68D1E90121206800F037FE206883
:10302000816841F480418160E1E719E0CA6849683C
:10303000206800F03DFE5021206806E0CA6849681B
:10304000206800F046FE6021206800F029FECEE7EF
:10305000CA684968206800F02BFE40212068F4E728
:10306000226801461046F0E770477047F8B50168DE
:1030700004460868CA684B6910F00F0F4FF000054E
:1030800059D003F0010602F49077374365D0C107A9
:1030900005D0D10503D5616C41F0010161644107A0
:1030A00005D5D90703D0616C41F002016164810745
:1030B00005D5D90703D0616C41F0040161640107B3
:1030C00007D502F02001314303D0616C41F00801C3
:1030D0006164616C00293AD0800604D5900602D55F
:1030E000204600F037FE20684069616CC0F3801014
:1030F000090700D460B3204600F005FE206840694F
:10310000400621D52068143050E8001F21F040010E
:1031100040E80012002AF5D1E06BA8B16D49416387
:10312000E06BFEF769FE002811D0E06B416B01B047
:10313000BDE8F040084783060FD593060DD520461D
:10314000BDE8F84000F006BE2046FFF78EFFF8BD50
:103150002046FFF78AFF6564F8BD266B2023012E09
:103160007CD1C6067AD5D60678D50868486800901E
:1031700048694FF00206400640D5E16B0868406898
:103180000004000CE8D0A28D8242E5D9E085886970
:1031900020282DD020680C3050E8001F21F48071C9
:1031A00040E80012002AF5D12068143050E8001FD2
:1031B00021F0010140E80012002AF5D12068143006
:1031C00050E8001F21F0400140E80012002AF5D12C
:1031D00084F84230256320680C3050E8001F21F04D
:1031E000100140E80012002AF5D1E06BFEF7E0FD87
:1031F0006663A08DE18D401A81B22AE0A08DE18D39
:10320000401A81B2E08D0028A6D00029A4D02268FF
:103210000C3252E8000F20F4907042E80007002FB3
:10322000F5D12068143050E8002F22F0010240E868
:103230000027002FF5D184F84230256320680C3038
:1032400050E8002F22F0100240E80023002BF5D1B7
:1032500066632046FFF708FFF8BDFFE705062BD59C
:10326000150629D594F841002128F5D1A068B0F5BC
:10327000805F01D12069B0B1206A411C21622168C0
:1032800000784860E08C401E0004000CE084E3D12C
:103290002068C16821F08001C1602068C16841F0E8
:1032A0004001C160D8E7206A0088C0F30800486088
:1032B000206A801C2062E5E74006CDD55006CBD5BC
:1032C000CA68204622F04002CA6084F8413000F00B
:1032D000F2F8C1E7F73C000870B5040004D094F898
:1032E0004100002510B106E0012070BD84F8405077
:1032F000204600F023F8242084F841002068C168AB
:1033000021F40051C160204600F086FD206801696B
:1033100021F4904101612068416921F02A01416155
:103320002068C16841F40051C1606564202084F8C0
:10333000410084F842006563002070BD70B586B01E
:10334000002400940194029403942E4E03682E49A5
:10335000022003222D4DB34226D18B6943F48043D2
:103360008B618B6903F4804304938B6943F00403FE
:103370008B618969039201F0040104910102CDE996
:10338000001069462846FEF795FD2815CDE9000492
:10339000694628460294FEF78DFD0022114625203D
:1033A000FEF7EEFE252028E0194EB34227D1CB6967
:1033B00043F40033CB61CB6903F4003304938B698E
:1033C00043F004038B618969039201F004010491C5
:1033D0000421CDE9001069462846FEF76BFD082060
:1033E000CDE90004694628460294FEF763FD0022F9
:1033F00011462620FEF7C4FE2620FEF7B3FE06B0D7
:1034000070BD00000038014000100240000801407B
:103410000044004070472DE9F843044690F841000D
:10342000984616460D46202802D00220BDE8F883B3
:1034300085B17EB100206064212084F84100FEF750
:1034400033FEA6848146E684A0682027B0F5805F1D
:1034500002D003E00120E9E7206910B12E460025E3
:103460000EE000260CE08021204600F031FDA8B9D6
:10347000C6B116F8010B21684860E08C401EE0845C
:10348000E08C4B464FF00002CDF800800028EAD1D6
:103490004FF04001204600F01BFD40B184F8417020
:1034A0000320C3E735F8020BC0F30800E3E784F814
:1034B00041700020BAE77047FEE700003EB50024E7
:1034C00010480094019402940D49846001600473D3
:1034D0000475012505614FF460214460C161FEF768
:1034E00095FA08B172B6FEE70095CDE90154694638
:1034F0000448FEF709FA002801D072B6FEE73EBD87
:1035000000240140380000202DE9F04385B000255B
:103510002A480095019502950395816941F02001A3
:103520008161816901F020010491816941F0040108
:103530008161816901F004010491816941F0080110
:1035400081618069DFF8789000F008000490002223
:103550004FF480514846FEF7A2FD012401AA02263D
:103560000094DFF8608082E8700069464046FEF70C
:10357000A1FC4FF4E04701AA009782E87000694679
:103580004846FEF797FC002203214846FEF787FDD8
:10359000012239464846FEF782FD1820CDE9000495
:1035A0000320039069464046FEF784FC0022182160
:1035B0004046FEF774FD05B0BDE8F0830010024000
:1035C000000C0140000801400F4810B50D49016092
:1035D0004FF48271416000218160C1604FF400723C
:1035E0000161C0E905121022C0E907214162816230
:1035F0000A21C162FFF730F9002801D072B6FEE758
:1036000010BD0000003001406800002010B586B0F9
:1036100000241748009401940294039404941349DD
:10362000059401604721C0E901144FF6FF71C0E91C
:10363000031444618461FFF73FFC08B172B6FEE7F2
:103640004FF48050009069460948FFF79FFC08B18D
:1036500072B6FEE7049404A905480594FFF7F8FB49
:10366000002801D072B6FEE706B010BD002C014064
:10367000C0000020FEE7FEE710B500F0A2FE00F05B
:103680001DFF052000F09EFF282000F0A7FF02206C
:1036900000F04DFE002001F01BF80021012000F099
:1036A000A4FF012000F0D1FD0121002000F0B0FDB9
:1036B000052000F0DEFD0F2000F0EDFD012000F000
:1036C00055FE0121002000F0A5FF064800F0F1FEA4
:1036D0000449002000F097FEBDE810406420FEF78A
:1036E000D7BB0000180000207047000030B50C4622
:1036F000ABB00546C978A078CDE90001637822789F
:103700000CA11AA8FCF776FD1AA801F01FF8227880
:103710002A7363786B73A078A873E178E973CDE9B5
:1037200000010EA102A8FCF765FD02A801F00EF849
:103730002BB030BD5B524157205258204441544178
:103740005D3A20253032582025303258202530323D
:103750005820253032580D0A000000005B524543C6
:10376000565D3A2044415441207475204553503AE7
:103770002050756D703D2564207C2046616E3D258E
:1037800064207C204C696768743D2564207C204D52
:103790006F64653D25640D0A000000002DE9F041CD
:1037A0009CB0FEF781FC284C616821B1411A41F2BE
:1037B0008832914245D3606023481830FDF7FAFF04
:1037C000214818300168A1604068E0601F48FEF79A
:1037D00098F81E48E168FEF790F800251C48FEF7AF
:1037E0006DFA0A211A48FEF7CBF918B91848FEF706
:1037F00009F905461648FEF7C1FA2846FDF7DCFE32
:10380000054601461148FEF77AF8284600F0CAFF3F
:1038100005460E46A046E06800F0C4FF04460F4689
:10382000D8F8080000F0BEFFCDE90047CDE9025608
:103830000B46024607A104A8FCF7DCFC04A800F034
:1038400085FF1CB0BDE8F081080000209801002031
:10385000380000204E6869657420646F3A20252E78
:1038600031662A43207C20446F20616D3A20252E4A
:1038700031662525207C20536F696C3A20252E3136
:103880006625250D0A0000002DE9F043C5B08146EC
:10389000FEF70AFC454940F6B8330A68821A9A4294
:1038A00077D3086000F0D3FE0220FEF7F1FA404E15
:1038B000B06800F077FF07468846706800F072FF36
:1038C00004460D46306800F06DFF8DE8B0010246F9
:1038D0000B4638A104A8FCF78DFC04A8FCF7F2FD08
:1038E000401CC1B204A800F0C3FE0220FEF7D0FACB
:1038F00000F002FD00F0E0FC00F059FD0220FEF7B0
:10390000C7FA00F06DFD0520FEF7C2FA0121002084
:1039100000F0F8FD02462CA124A8FCF76BFC24A8BB
:1039200000F014FF00203490FEF7BEFB044636E0A2
:1039300000F0F2FC00282FD029A000F007FF00F0D3
:10394000CEFD0446042800D904249DF8D3109DF828
:10395000D200CDE900019DF8D1309DF8D02023A1FF
:1039600035A8FCF747FC35A800F0F0FE214634A846
:1039700000F00AFE34A90E48FFF7B8FE25A000F0BB
:10398000E5FE00BF00F063FE00F007FD0848494671
:10399000884745B0BDE8F0830120FEF779FAFEF7CD
:1039A00083FB001BC828C3D3ECE7000008000020FD
:1039B000980100203C252E316620252E31662025D9
:1039C0002E31663E000000005B44454255475D20B5
:1039D000434F4E4649473D3078253032580D0A0056
:1039E00068657265656565650D0A00005B52415743
:1039F00020525820444154415D3A2025303258200D
:103A000025303258202530325820253032580D0AC2
:103A100000000000525820434D44204F4B0D0A0037
:103A2000F8B5044640684FF48273984217D1A068F5
:103A30004FF48065B0F5004F01D0A8420FD1206847
:103A4000066826F0400606606068984207D1A068C4
:103A5000A84204D100920B460022012103E000920B
:103A60000B4600228021204600F022F8002804D0D6
:103A7000606D40F0200060650320F8BDF8B5154684
:103A80000E460B46009204460122022100F010F877
:103A900040B93346002280212046009500F008F806
:103AA000002804D0606D40F0200060650320F8BD60
:103AB0002DE9F8431E46914688460446089DFEF7C8
:103AC000F3FA401B351AFEF7EFFA0746254800685F
:103AD000C0F3CB30684338E0701C37D0FEF7E4FA0F
:103AE000C01BA84203D215B1009860B32CE0206837
:103AF000416821F0E00141606068B0F5827F0BD140
:103B0000A068B0F5004F02D0B0F5806F04D12068F6
:103B1000016821F040010160A06AB0F5005F09D1A1
:103B20002068016821F4005101602068016841F4B7
:103B300000510160012084F85100002084F85000F9
:103B40000320BDE8F8830025401E009020688168AE
:103B500038EA010004D000214945BDD10020F0E73A
:103B60000121F9E73400002070471FB500220091C1
:103B70000192029203926946FEF79CF91FBD1FB5A0
:103B8000002200910121CDE9011202210391694631
:103B9000FEF790F91FBDFEF78DBA30B593B028211E
:103BA0006846FCF7AEFC14210AA8FCF7AAFC002525
:103BB00001200F9510951195010412958DE82300B1
:103BC00004904FF4E010CDE90810022407946846F1
:103BD000FEF7B2FC08B172B6FEE70AA90F2081E831
:103BE00031004FF48060CDE90D0502210AA8FEF7EF
:103BF000C1FB08B172B6FEE74FF4004011900F947C
:103C00000FA8FEF741FB002801D072B6FEE713B003
:103C100030BD7047F0B50268194B1A4C1A4D4FF081
:103C20008047984205D0B84203D0A04201D0A842B4
:103C300003D122F070064A683243984205D0B84258
:103C400003D0A04201D0A84203D122F44074CA6834
:103C500022434C6922F08002224302608A68C262D9
:103C60000A688262984201D10969016301214161B8
:103C70000169C90703D0016921F001010161F0BDAB
:103C8000002C0140000400400008004010B584688A
:103C900042EA032224F47F440A432243826010BD97
:103CA000826822F070020A4342F007018160704787
:103CB00010B5036A046A24F001040462846924F0E4
:103CC000F00444EA021423F00A020A438461026207
:103CD00010BD10B5036A046A24F0100404628469FC
:103CE00023F0A00324F4704444EA023243EA0111B1
:103CF0008261016210BD10B5406A0021C185C18496
:103D0000FFF7B3F910BD01680C3151E8002F22F420
:103D1000907241E80023002BF5D10168143151E87D
:103D2000002F22F0010241E80023002BF5D1016BA6
:103D3000012909D101680C3151E8002F22F010024D
:103D400041E80023002BF5D1202180F8421000210A
:103D50000163704708B590F84210222901D0022073
:103D600008BD82684FF480539A4201D1016921B1A4
:103D7000816A9A421BD04AB10AE00268816A52689D
:103D8000C2F308020A80816A891C08E0026972B1E4
:103D90000268526802F07F020A70816A491C8162DF
:103DA000C18D491E0904090CC18503D01BE00268BE
:103DB0005268F1E70168CA6822F02002CA6001680F
:103DC000CA6822F48072CA6001684A6922F001025E
:103DD0004A61202180F8421000214163026B012AD0
:103DE00003D0FFF717FB002008BD016301680C3109
:103DF00051E8002F22F0100241E80023002BF5D1FA
:103E000001680A68D20602D50A6849680091818D66
:103E1000FFF72AF9E7E7000070B50446006801697A
:103E2000E26821F44051114301612169A06808430F
:103E3000616908432168CA6841F20C639A430243EE
:103E4000CA6020684169A26921F44071114341614F
:103E50001E492068884202D1FEF738FB01E0FEF7D8
:103E600025FB00EBC00101EB0012606864218000BB
:103E7000B2FBF0F3B3FBF1F36FF018067343B2FB40
:103E8000F0F5B2FBF0F605EB8305322303EB0515E5
:103E9000B5FBF1F5B6FBF1F605F0F00505EB0615FF
:103EA000B2FBF0F6B2FBF0F0B0FBF1F06FF01802ED
:103EB000504306EB800003EB0010B0FBF1F02168EB
:103EC00000F00F002844886070BD000000380140F9
:103ED0002DE9F843984617460D460446089E24E00F
:103EE000701C22D0FEF7E0F8A0EB0800B0421AD810
:103EF000CEB12068C168490717D5802D15D0402D57
:103F000013D00168C94309070FD401680025406830
:103F100000902046FFF7F7FE0820606484F84050C8
:103F20000120BDE8F8830320FBE72068006835EA3C
:103F3000000004D00020B842D2D00020F1E70120D8
:103F4000F9E700000148FFF791B8000008010020E0
:103F50000148FFF78BB8000050010020FEE7490040
:103F600050EAC12018BF04204A0D18BF40F00100DC
:103F700040F2FF72B2EB515F08BF40F0020001282F
:103F800008BF052070470907090E002804DB00F16F
:103F9000E02080F80014704700F00F0000F1E020EE
:103FA00080F8141D704730380A2801D2012070476C
:103FB00000207047012208210148FEF770B8000078
:103FC00000080140002208210148FEF768B80000FF
:103FD00000080140012210210148FEF760B80000EE
:103FE00000080140002210210148FEF758B80000E7
:103FF0000008014031B5084D6C68FEF751FA0749D9
:10400000B0FBF1F000994843009068680099001BEC
:104010008842FAD338BD0000001000E040420F0093
:10402000FEF750F8FFF7B9FDFFF76EFAFFF746FA13
:10403000FFF7CAFAFFF7EAFA3348FEF77FFF324884
:10404000324948304FF4E13500240160C0E90154A1
:104050000C26C460C0E904468461C461FFF73CF9E2
:1040600008B172B6FEE72848294990300160C0E9DE
:104070000154C460C0E904468461C461FFF72CF9AF
:1040800008B172B6FEE723A000F060FB4FF4FA60BF
:10409000FDF7FEFE25A000F059FBFFF7EDFA2AA080
:1040A00000F054FB184D32A0D835EC7300F04EFBF5
:1040B0004FF47A74E87B012803D036A000F046FB69
:1040C0001AE03CA000F042FB08E000BFFFF766FBEF
:1040D0003F48FFF7D9FB6420FDF7DAFEE87B0128B3
:1040E000F4D03CA00CE000BFFFF758FB4048FFF7BE
:1040F000CBFB2046FDF7CCFEE87B0028F4D03DA0AA
:1041000000F024FBD6E70000C0000020003801408A
:104110000044004043686F20444854206B686F6936
:1041200020646F6E672E2E2E0D0A000042617420EF
:10413000646175206361752068696E68206E5246FF
:1041400032342E2E2E0D0A004B686F6920646F6E7C
:104150006720686F616E20746174202D204E524676
:104160002073616E2073616E672E0D0A00000000DF
:1041700048652074686F6E67206B686F6920646F94
:104180006E67206F2063686520646F3A2041555444
:104190004F0D0A0043686520646F204155544F203D
:1041A00064616E6720686F617420646F6E670D0ACA
:1041B0000000000043687579656E2073616E6720AA
:1041C00063686520646F204D414E55414C0D0A00D7
:1041D0009916000854686F6174206B686F692063DA
:1041E000686520646F204D414E55414C0D0A00001A
:1041F000F915000854686F6174206B686F6920635B
:10420000686520646F204155544F0D0A000000007E
:1042100038B50D460446052800D905240121084675
:1042200000F070F901228DF8000002FA04F21DB1CD
:1042300002438DF8002002E090438DF80000012237
:104240006946104600F05AFA38BD38B504460121D7
:10425000084600F057F98DF800000CB13F2000E04F
:1042600000208DF8000001226946104600F046FA51
:1042700038BD38B504460121042000F043F900F0B0
:104280000F0040EA04108DF8000001226946042066
:1042900000F034FA38BD38B504460121042000F09E
:1042A00031F900F0F00020438DF80000012269464A
:1042B000042000F023FA38BD08B500208DF8000076
:1042C00000F048F940F010008DF800000122694626
:1042D000072000F013FA08BD08B500208DF8000093
:1042E00000F038F940F040008DF8000001226946E6
:1042F000072000F003FA08BD08B500208DF8000083
:1043000000F028F940F020008DF8000001226946F5
:10431000072000F0F3F908BD10B50121172000F0C7
:10432000F1F8C00701D0002010BD012010BD38B544
:10433000044600208DF800000121062000F0E2F87C
:1043400020F028008DF80000012C02D0022C03D0B0
:1043500006E040F0080001E040F020008DF8000089
:1043600001226946062000F0C9F938BD38B5044677
:1043700001211D2000F0C6F88DF80000012C09D0A5
:1043800020F004008DF80000012269461D2000F095
:10439000B5F938BD40F00400F4E710B5FFF722FE90
:1043A000E22000F0C7F9BDE81040FFF713BE10B5DA
:1043B000FFF718FEE12000F0BDF9BDE81040FFF75F
:1043C00009BE10B500F07AF8FFF7F1FFFFF7E5FF3F
:1043D000FFF782FFFFF790FFBDE81040FFF76CBFCB
:1043E00008B500208DF80000012100F08BF840F0A6
:1043F00001008DF8000001226946002000F07EF9DE
:10440000FFF7D8FD08BD38B5044600200D468DF8ED
:1044100000000121022000F075F88DF80000062C44
:1044200019D2DFE804F0030D1E28323C052229468C
:104430000A2000F063F99DF8000040F0010008E058
:10444000052229460B2000F059F99DF8000040F0A4
:1044500002008DF8000001226946022000F04EF9AA
:1044600038BD012229460C2000F048F99DF80000D3
:1044700040F00400EDE7012229460D2000F03EF94E
:104480009DF8000040F00800E3E7012229460E20D5
:1044900000F034F99DF8000040F01000D9E7012247
:1044A00029460F2000F02AF99DF8000040F0200076
:1044B000CFE705220146102000F020B908B5002002
:1044C0008DF80000012100F01DF840F002008DF889
:1044D000000001226946002000F010F908BD08B56F
:1044E00000208DF80000FFF77DFD602000F022F92C
:1044F0000121684600F024F8FFF76CFD9DF80000EC
:1045000008BD00007CB50C468DF8040000208DF835
:104510000000FFF767FD4FF47A752B46012201A9D1
:104520000648FEF7D5FA2B46224669460348FEF7B1
:1045300025FAFFF74FFD9DF800007CBD68000020C4
:104540000A4601464FF47A730148FEF717BA000095
:10455000680000200EB500208DF80400FF208DF8C3
:104560000800FFF73FFD4FF47A700090012301AA85
:1045700002A90448FEF75FFBFFF72CFD9DF804003D
:104580000EBD000068000020F8B5054661200C460D
:104590008DF80000FFF726FD4FF47A7633460122AE
:1045A00069460748FEF794FA3346224629460448EE
:1045B000FEF7E4F9FFF70EFDFFF78EFEF8BD0000F1
:1045C0006800002001B501229DF800006946801EA8
:1045D0008DF80000032000F091F808BD01B501221C
:1045E0006946052000F08AF808BD38B50C46054636
:1045F00001210020FFF786FFE90020F00C0041EACE
:10460000840101438DF8001001226946002000F06A
:1046100075F838BD38B50D46044601211C20FFF75A
:1046200071FF8DF80000052C00D90524012202FA43
:1046300004F21DB102438DF8002002E090438DF892
:104640000000012269461C2000F058F838BD08B56A
:1046500000208DF800000121FFF754FF20F0010039
:104660008DF8000001226946002000F047F808BDDF
:10467000F8B50C460546FFF7A5FCA0208DF8000014
:10468000FFF7B0FC4FF47A763346012269460F48B3
:10469000FEF71EFA3346224629460C48FEF718FA62
:1046A000FFF798FCFFF786FC0120FDF7F1FBFFF711
:1046B00089FCFFF74FFFC00605D5FFF7FDFDFFF7AB
:1046C00076FE0120F8BD0020F8BD00006800002043
:1046D00038B5044600208DF8000001210620FFF7C0
:1046E00011FF00F0B80040EA44008DF800000122FC
:1046F0006946062000F002F838BD0000F8B540F029
:10470000200014460D468DF80000FFF76BFC4FF4B7
:104710007A763346012269460548FEF7D9F93346D1
:10472000224629460248FEF7D3F9FFF753FCF8BDAD
:104730006800002001B54FF47A73012269460248EF
:10474000FEF7C6F908BD00006800002010B5044659
:10475000FBF7B8FE214682B2BDE810404FF0FF33B0
:104760000148FEF758BE00000801002010B50029DE
:104770000AD00878002807D005487844FCF7A0FA4A
:10478000002801D0002010BD0248784410BD000070
:10479000B6060000AE0600000808A0F500114FEABA
:1047A0003101704743004FEAD30C4FEA3C0C4340C1
:1047B0001FBF40070CF1605113F0FE4F70471CF013
:1047C000006F03D100200CF0004170470CF0004353
:1047D00043EA507010B540EACC0000F0C8F900BFC1
:1047E000000000924FEA0001FFF7D6BF4FF00041F2
:1047F0004FF00000A1F500217047000090EA010F82
:1048000048BF81F0004100F10E82421A3CBF801A7D
:1048100089184FEAD0524FF07F4C1CEA410FA2EBAF
:10482000D15318BF9CEA026F00F03B804FF0004C60
:104830004CEA00204CEA012121FA03FC10EB0C0C9D
:104840001ED202F1FF325FEA1C2040EBC25038BF9B
:1048500070471CF07F0F4FEA400C18BFBCF17F4F30
:1048600038BF7047C3F12003994008BF20F0010012
:10487000BCF17F4F38BF7047A0F1C04000F0BDB918
:104880004FEA3C00000A40EBC25028BF1CF0FF0F6B
:104890004FEA400CE6D018BFBCF17F4F38BF7047DD
:1048A000EAE79CEA026F05D010EA5C0F08BF00F04F
:1048B0000040704710B500F05AF900BF64FBBE3EDF
:1048C0004FF47F0C1CEAD0121EBF1CEAD11392EAEF
:1048D0000C0F93EA0C0F00F0858090EA010F48BF9F
:1048E00042F4807240F4000C41F400002CF07F414F
:1048F00020F07F4000B58142A2EB03020FF2081CBA
:10490000ACEB504EC0F100009EF800E04FEA4E0EB6
:1049100000FB0EFC38BF49004FEA2C1C02F5FA02DE
:104920000CFB0EF34FEACE1E4FEA112C4FEAC121C9
:104930000EEB635E42EB22420EFB0CFC4FEA1C5373
:1049400000FB03114FEA112C4FEA01310EFB0CFC66
:104950004FEADC4C00FB0C11C14228BF09184CEB9C
:1049600003335DF804EB10EB410143EBC250B2F5A9
:104970007C0F38BF704729D512F0F00F1CBF00F133
:10498000C04000F0004070470081828384858687A4
:1049900088898B8C8D8E8F919293959697999A9CFE
:1049A0009D9FA0A2A3A5A7A8AAACAEB0B2B3B5B76D
:1049B000B9BCBEC0C2C5C7C9CCCED1D4D7D9DCDF43
:1049C000E2E6E9ECF0F3F7FAFE0000004FEA400CF3
:1049D0000CF1807CBCF17E4F28BF7047B0F1C04025
:1049E00000F00BB990EA010F0CEAD11348BF42F472
:1049F0008072624538BF634507D213F47F0F16D02B
:104A000080EA010000F00040704710B500F0AFF8F8
:104A1000097EFC3E00F005B880EA010000F000408D
:104A2000704780EA010000F0004000F0E6B812F4A0
:104A30007F0F04BF0248704780EA010000F0DDB834
:104A40000000C07FB0FA80F310FA03F2C3F19D03B7
:104A50000AD0D90501EB1220530638BF704700F188
:104A6000010008BF20F00100704700004FF47F0CE8
:104A70001CEAD0121EBF1CEAD11392EA0C0F93EA73
:104A80000C0F00F0478090EA010F48BF42F480729B
:104A90004FF0004C4CEA00204CEA012102EB0302EB
:104AA000A0FB0113A2F50002002918BF43F0010387
:104AB0005B0028BF4FEA330342EB22425FEA132C2C
:104AC0004CEBC2502EBFBCEB436FB2F57C0F70476E
:104AD0004FEA036CBCF1004F08BF20F00100B2F5B3
:104AE0007C0F38BF70470BD582F0FF0212F5803F74
:104AF000C8BF704700F1C040D8BF00F00040704709
:104B000000F5000C5FEA4C0C48BF7047B0F1C040A4
:104B100000F073B890EA010F0CEAD11348BF42F4D9
:104B20008072624538BF634504D280EA010000F01C
:104B30000040704710B500F01AF800BF8900013E30
:104B400000F007B800F009B85FEA410C5FEA1C6C9E
:104B500008D080EA010000F050B85FEA400C5FEA3C
:104B60001C6CF6D14FF00040A0F5800070470EF1AC
:104B7000020E2EF0030E5EF8044B244204D44FEADA
:104B80004102B2F17F4F11D84FEA4003B3F17F4F9A
:104B90000CD80ED14FEAD07CB2F17F4F0CEB4C0C0D
:104BA0000CF1020C08BF4CEBD17C04E04FF0080C78
:104BB00001E04FEAD17C0CEB4C0324FA03F404F03F
:104BC0000704B4F1040C06D20EEB840CBDE81040CF
:104BD0004CF0010C6047DFE80CF0070802024FF0D0
:104BE0000040A0F5800010BD0846420018BFD2F179
:104BF000807288BF00F0004010BDFF2141EAD05014
:104C0000C005704780F0004090EA010F7FF5FDADD0
:104C100081F0004100F007B890EA010F48BF81F031
:104C200000413FF5F2AD421A04D882F00042A0EBF9
:104C3000020011444FEAD0524FF07F4C1CEA410F62
:104C4000A2EBD15318BF9CEA026F4AD04FF0004C40
:104C50004CEA00204CEA012121FA03FCB0EB0C0CD9
:104C60000FD412F0FE0F36D05FEA4C001DD50012B3
:104C700040EBC25038BF70471CF03F0F18BF704761
:104C80000BE0A2F101025FEA1C2040EBC25038BFEA
:104C900070471CF07F0F18BF7047C3F12003994085
:104CA00014BF401E20F00100704780084FEA122315
:104CB00008BF7047B0FA80FCA2EB0C02CCF1280CC4
:104CC00060FA0CF093EA122F04BF00EBC250704759
:104CD0004FEAC3707047130A5FEADC1008BF7047E1
:104CE000F6E79CEA026F04D010EA5C0F08BF0020D0
:104CF000704710B5FFF73BFF40DFF63E81F0004004
:104D00007047FBF75ABD01020203040506070809B4
:104D10000A0B0C0D0E0F101001020203040506070A
:104D200008090A0B0C0D0E0F101000000000000007
:104D30000000010203040607080900000000010248
:104D40000304303132333435363738394142434445
:104D500045464030580030313233343536373839F3
:104D600061626364656640307800040000080000FA
:104D700000000000000200010000100002400000DE
:104D8000000000A00000000005400000000000C876
:104D9000000000000C4000000000409C00000000EB
:104DA000194000000020BCBE00000000344000009C
:104DB000BFC91B8E00000004B5400000504BCFD08F
:104DC0006607E2CF010000006C4100003E8251AA5C
:104DD000DFEEA73401000000D9420000DCB5A0E2FC
:104DE0003A301F97FFFFFFFFB4450000FD25A0C824
:104DF000E9A3C14FFFFFFFFFFF3F0000000000805D
:104E000000000000FF3F00000000008000000000E4
:104E10004C4E000800000020380000002801000867
:104E2000844E000838000020D0070000440100082C
:104E30001C00000043000000F8FFFFFF0C00000012
:104E40000E0000000F0000002E0000000000000017
:104E50000000000000000000000000000000000052
:104E600000000000414243444500000000000000F3
:104E70000000000001000000100000000000000021
:044E800000127A00A2
:04000005080000ED02
:00000001FF
